{
  "contractName": "ERC677TransferReceiverTest",
  "abi": [
    {
      "anonymous": false,
      "inputs": [
        {
          "indexed": false,
          "internalType": "address",
          "name": "from",
          "type": "address"
        },
        {
          "indexed": false,
          "internalType": "uint256",
          "name": "amount",
          "type": "uint256"
        },
        {
          "indexed": false,
          "internalType": "bytes",
          "name": "data",
          "type": "bytes"
        }
      ],
      "name": "Test",
      "type": "event"
    },
    {
      "inputs": [
        {
          "internalType": "address",
          "name": "from",
          "type": "address"
        },
        {
          "internalType": "uint256",
          "name": "amount",
          "type": "uint256"
        },
        {
          "internalType": "bytes",
          "name": "data",
          "type": "bytes"
        }
      ],
      "name": "tokenFallback",
      "outputs": [
        {
          "internalType": "bool",
          "name": "",
          "type": "bool"
        }
      ],
      "stateMutability": "nonpayable",
      "type": "function"
    }
  ],
  "bytecode": "0x608060405234801561001057600080fd5b5061031d806100206000396000f3fe608060405234801561001057600080fd5b506004361061002b5760003560e01c8063c0ee0b8a14610030575b600080fd5b61004a6004803603810190610045919061011f565b610060565b6040516100579190610225565b60405180910390f35b60007f6213ae30336fe4174f94b8d3dc5b1621cc427f1326b600bf8c03131796c038dd8585858560405161009794939291906101e5565b60405180910390a160019050949350505050565b6000813590506100ba816102b9565b92915050565b60008083601f8401126100d257600080fd5b8235905067ffffffffffffffff8111156100eb57600080fd5b60208301915083600182028301111561010357600080fd5b9250929050565b600081359050610119816102d0565b92915050565b6000806000806060858703121561013557600080fd5b6000610143878288016100ab565b94505060206101548782880161010a565b935050604085013567ffffffffffffffff81111561017157600080fd5b61017d878288016100c0565b925092505092959194509250565b61019481610251565b82525050565b6101a381610263565b82525050565b60006101b58385610240565b93506101c2838584610299565b6101cb836102a8565b840190509392505050565b6101df8161028f565b82525050565b60006060820190506101fa600083018761018b565b61020760208301866101d6565b818103604083015261021a8184866101a9565b905095945050505050565b600060208201905061023a600083018461019a565b92915050565b600082825260208201905092915050565b600061025c8261026f565b9050919050565b60008115159050919050565b600073ffffffffffffffffffffffffffffffffffffffff82169050919050565b6000819050919050565b82818337600083830152505050565b6000601f19601f8301169050919050565b6102c281610251565b81146102cd57600080fd5b50565b6102d98161028f565b81146102e457600080fd5b5056fea2646970667358221220f9146fefd2422342185f3da3b3daf6875ffed80d057e0116998a57b8dffad47264736f6c63430008030033",
  "immutableReferences": {},
  "source": "// SPDX-License-Identifier: MIT\npragma solidity ^0.8.0;\n\nimport \"./IERC677TransferReceiver.sol\";\n\n/*\n * Contract interface for receivers of tokens that\n * comply with ERC-677.\n * See https://github.com/ethereum/EIPs/issues/677 for details.\n */\ncontract ERC677TransferReceiverTest is IERC677TransferReceiver {\n  event Test(address from, uint256 amount, bytes data);\n\n  function tokenFallback(\n    address from,\n    uint256 amount,\n    bytes calldata data\n  ) external override returns (bool) {\n    emit Test(from, amount, data);\n    return true;\n  }\n}\n",
  "sourcePath": "/home/usuario/Documentos/GitHub/erc677-contracts/contracts/ERC677TransferReceiverTest.sol",
  "compiler": {
    "name": "solc",
    "version": "0.8.3+commit.8d00100c.Emscripten.clang"
  },
  "schemaVersion": "3.4.4",
  "updatedAt": "2022-02-21T01:06:32.660Z",
  "devdoc": {
    "kind": "dev",
    "methods": {},
    "version": 1
  },
  "userdoc": {
    "kind": "user",
    "methods": {},
    "version": 1
  }
}