{
  "contractName": "ERC677",
  "abi": [
    {
      "inputs": [
        {
          "internalType": "address",
          "name": "initialAccount",
          "type": "address"
        },
        {
          "internalType": "uint256",
          "name": "initialBalance",
          "type": "uint256"
        },
        {
          "internalType": "string",
          "name": "tokenName",
          "type": "string"
        },
        {
          "internalType": "string",
          "name": "tokenSymbol",
          "type": "string"
        }
      ],
      "stateMutability": "nonpayable",
      "type": "constructor"
    },
    {
      "anonymous": false,
      "inputs": [
        {
          "indexed": true,
          "internalType": "address",
          "name": "owner",
          "type": "address"
        },
        {
          "indexed": true,
          "internalType": "address",
          "name": "spender",
          "type": "address"
        },
        {
          "indexed": false,
          "internalType": "uint256",
          "name": "value",
          "type": "uint256"
        }
      ],
      "name": "Approval",
      "type": "event"
    },
    {
      "anonymous": false,
      "inputs": [
        {
          "indexed": true,
          "internalType": "address",
          "name": "from",
          "type": "address"
        },
        {
          "indexed": true,
          "internalType": "address",
          "name": "to",
          "type": "address"
        },
        {
          "indexed": false,
          "internalType": "uint256",
          "name": "value",
          "type": "uint256"
        },
        {
          "indexed": false,
          "internalType": "bytes",
          "name": "data",
          "type": "bytes"
        }
      ],
      "name": "Transfer",
      "type": "event"
    },
    {
      "anonymous": false,
      "inputs": [
        {
          "indexed": true,
          "internalType": "address",
          "name": "from",
          "type": "address"
        },
        {
          "indexed": true,
          "internalType": "address",
          "name": "to",
          "type": "address"
        },
        {
          "indexed": false,
          "internalType": "uint256",
          "name": "value",
          "type": "uint256"
        }
      ],
      "name": "Transfer",
      "type": "event"
    },
    {
      "inputs": [
        {
          "internalType": "address",
          "name": "owner",
          "type": "address"
        },
        {
          "internalType": "address",
          "name": "spender",
          "type": "address"
        }
      ],
      "name": "allowance",
      "outputs": [
        {
          "internalType": "uint256",
          "name": "",
          "type": "uint256"
        }
      ],
      "stateMutability": "view",
      "type": "function",
      "constant": true
    },
    {
      "inputs": [
        {
          "internalType": "address",
          "name": "spender",
          "type": "address"
        },
        {
          "internalType": "uint256",
          "name": "amount",
          "type": "uint256"
        }
      ],
      "name": "approve",
      "outputs": [
        {
          "internalType": "bool",
          "name": "",
          "type": "bool"
        }
      ],
      "stateMutability": "nonpayable",
      "type": "function"
    },
    {
      "inputs": [
        {
          "internalType": "address",
          "name": "account",
          "type": "address"
        }
      ],
      "name": "balanceOf",
      "outputs": [
        {
          "internalType": "uint256",
          "name": "",
          "type": "uint256"
        }
      ],
      "stateMutability": "view",
      "type": "function",
      "constant": true
    },
    {
      "inputs": [],
      "name": "decimals",
      "outputs": [
        {
          "internalType": "uint8",
          "name": "",
          "type": "uint8"
        }
      ],
      "stateMutability": "view",
      "type": "function",
      "constant": true
    },
    {
      "inputs": [
        {
          "internalType": "address",
          "name": "spender",
          "type": "address"
        },
        {
          "internalType": "uint256",
          "name": "subtractedValue",
          "type": "uint256"
        }
      ],
      "name": "decreaseAllowance",
      "outputs": [
        {
          "internalType": "bool",
          "name": "",
          "type": "bool"
        }
      ],
      "stateMutability": "nonpayable",
      "type": "function"
    },
    {
      "inputs": [
        {
          "internalType": "address",
          "name": "spender",
          "type": "address"
        },
        {
          "internalType": "uint256",
          "name": "addedValue",
          "type": "uint256"
        }
      ],
      "name": "increaseAllowance",
      "outputs": [
        {
          "internalType": "bool",
          "name": "",
          "type": "bool"
        }
      ],
      "stateMutability": "nonpayable",
      "type": "function"
    },
    {
      "inputs": [],
      "name": "name",
      "outputs": [
        {
          "internalType": "string",
          "name": "",
          "type": "string"
        }
      ],
      "stateMutability": "view",
      "type": "function",
      "constant": true
    },
    {
      "inputs": [],
      "name": "symbol",
      "outputs": [
        {
          "internalType": "string",
          "name": "",
          "type": "string"
        }
      ],
      "stateMutability": "view",
      "type": "function",
      "constant": true
    },
    {
      "inputs": [],
      "name": "totalSupply",
      "outputs": [
        {
          "internalType": "uint256",
          "name": "",
          "type": "uint256"
        }
      ],
      "stateMutability": "view",
      "type": "function",
      "constant": true
    },
    {
      "inputs": [
        {
          "internalType": "address",
          "name": "to",
          "type": "address"
        },
        {
          "internalType": "uint256",
          "name": "amount",
          "type": "uint256"
        }
      ],
      "name": "transfer",
      "outputs": [
        {
          "internalType": "bool",
          "name": "",
          "type": "bool"
        }
      ],
      "stateMutability": "nonpayable",
      "type": "function"
    },
    {
      "inputs": [
        {
          "internalType": "address",
          "name": "from",
          "type": "address"
        },
        {
          "internalType": "address",
          "name": "to",
          "type": "address"
        },
        {
          "internalType": "uint256",
          "name": "amount",
          "type": "uint256"
        }
      ],
      "name": "transferFrom",
      "outputs": [
        {
          "internalType": "bool",
          "name": "",
          "type": "bool"
        }
      ],
      "stateMutability": "nonpayable",
      "type": "function"
    },
    {
      "inputs": [
        {
          "internalType": "address",
          "name": "to",
          "type": "address"
        },
        {
          "internalType": "uint256",
          "name": "value",
          "type": "uint256"
        },
        {
          "internalType": "bytes",
          "name": "data",
          "type": "bytes"
        }
      ],
      "name": "transferAndCall",
      "outputs": [
        {
          "internalType": "bool",
          "name": "",
          "type": "bool"
        }
      ],
      "stateMutability": "nonpayable",
      "type": "function"
    }
  ],
  "bytecode": "0x60806040523480156200001157600080fd5b5060405162001e8038038062001e8083398181016040528101906200003791906200035c565b81818160039080519060200190620000519291906200020c565b5080600490805190602001906200006a9291906200020c565b5050506200007f84846200008960201b60201c565b5050505062000719565b600073ffffffffffffffffffffffffffffffffffffffff168273ffffffffffffffffffffffffffffffffffffffff161415620000fc576040517f08c379a0000000000000000000000000000000000000000000000000000000008152600401620000f39062000432565b60405180910390fd5b62000110600083836200020260201b60201c565b8060026000828254620001249190620004e1565b92505081905550806000808473ffffffffffffffffffffffffffffffffffffffff1673ffffffffffffffffffffffffffffffffffffffff16815260200190815260200160002060008282546200017b9190620004e1565b925050819055508173ffffffffffffffffffffffffffffffffffffffff16600073ffffffffffffffffffffffffffffffffffffffff167fddf252ad1be2c89b69c2b068fc378daa952ba7f163c4a11628f55a4df523b3ef83604051620001e2919062000454565b60405180910390a3620001fe600083836200020760201b60201c565b5050565b505050565b505050565b8280546200021a90620005b2565b90600052602060002090601f0160209004810192826200023e57600085556200028a565b82601f106200025957805160ff19168380011785556200028a565b828001600101855582156200028a579182015b82811115620002895782518255916020019190600101906200026c565b5b5090506200029991906200029d565b5090565b5b80821115620002b85760008160009055506001016200029e565b5090565b6000620002d3620002cd846200049a565b62000471565b905082815260208101848484011115620002ec57600080fd5b620002f98482856200057c565b509392505050565b6000815190506200031281620006e5565b92915050565b600082601f8301126200032a57600080fd5b81516200033c848260208601620002bc565b91505092915050565b6000815190506200035681620006ff565b92915050565b600080600080608085870312156200037357600080fd5b6000620003838782880162000301565b9450506020620003968782880162000345565b935050604085015167ffffffffffffffff811115620003b457600080fd5b620003c28782880162000318565b925050606085015167ffffffffffffffff811115620003e057600080fd5b620003ee8782880162000318565b91505092959194509250565b600062000409601f83620004d0565b91506200041682620006bc565b602082019050919050565b6200042c8162000572565b82525050565b600060208201905081810360008301526200044d81620003fa565b9050919050565b60006020820190506200046b600083018462000421565b92915050565b60006200047d62000490565b90506200048b8282620005e8565b919050565b6000604051905090565b600067ffffffffffffffff821115620004b857620004b76200067c565b5b620004c382620006ab565b9050602081019050919050565b600082825260208201905092915050565b6000620004ee8262000572565b9150620004fb8362000572565b9250827fffffffffffffffffffffffffffffffffffffffffffffffffffffffffffffffff038211156200053357620005326200061e565b5b828201905092915050565b60006200054b8262000552565b9050919050565b600073ffffffffffffffffffffffffffffffffffffffff82169050919050565b6000819050919050565b60005b838110156200059c5780820151818401526020810190506200057f565b83811115620005ac576000848401525b50505050565b60006002820490506001821680620005cb57607f821691505b60208210811415620005e257620005e16200064d565b5b50919050565b620005f382620006ab565b810181811067ffffffffffffffff821117156200061557620006146200067c565b5b80604052505050565b7f4e487b7100000000000000000000000000000000000000000000000000000000600052601160045260246000fd5b7f4e487b7100000000000000000000000000000000000000000000000000000000600052602260045260246000fd5b7f4e487b7100000000000000000000000000000000000000000000000000000000600052604160045260246000fd5b6000601f19601f8301169050919050565b7f45524332303a206d696e7420746f20746865207a65726f206164647265737300600082015250565b620006f0816200053e565b8114620006fc57600080fd5b50565b6200070a8162000572565b81146200071657600080fd5b50565b61175780620007296000396000f3fe608060405234801561001057600080fd5b50600436106100b45760003560e01c80634000aea0116100715780634000aea0146101a357806370a08231146101d357806395d89b4114610203578063a457c2d714610221578063a9059cbb14610251578063dd62ed3e14610281576100b4565b806306fdde03146100b9578063095ea7b3146100d757806318160ddd1461010757806323b872dd14610125578063313ce567146101555780633950935114610173575b600080fd5b6100c16102b1565b6040516100ce91906110f5565b60405180910390f35b6100f160048036038101906100ec9190610e2d565b610343565b6040516100fe91906110da565b60405180910390f35b61010f610366565b60405161011c91906111f7565b60405180910390f35b61013f600480360381019061013a9190610dde565b610370565b60405161014c91906110da565b60405180910390f35b61015d61039f565b60405161016a9190611242565b60405180910390f35b61018d60048036038101906101889190610e2d565b6103a8565b60405161019a91906110da565b60405180910390f35b6101bd60048036038101906101b89190610e69565b610452565b6040516101ca91906110da565b60405180910390f35b6101ed60048036038101906101e89190610d79565b61057a565b6040516101fa91906111f7565b60405180910390f35b61020b6105c2565b60405161021891906110f5565b60405180910390f35b61023b60048036038101906102369190610e2d565b610654565b60405161024891906110da565b60405180910390f35b61026b60048036038101906102669190610e2d565b61073e565b60405161027891906110da565b60405180910390f35b61029b60048036038101906102969190610da2565b610761565b6040516102a891906111f7565b60405180910390f35b6060600380546102c0906113d8565b80601f01602080910402602001604051908101604052809291908181526020018280546102ec906113d8565b80156103395780601f1061030e57610100808354040283529160200191610339565b820191906000526020600020905b81548152906001019060200180831161031c57829003601f168201915b5050505050905090565b60008061034e6107e8565b905061035b8185856107f0565b600191505092915050565b6000600254905090565b60008061037b6107e8565b90506103888582856109bb565b610393858585610a47565b60019150509392505050565b60006012905090565b6000806103b36107e8565b9050610447818585600160008673ffffffffffffffffffffffffffffffffffffffff1673ffffffffffffffffffffffffffffffffffffffff16815260200190815260200160002060008973ffffffffffffffffffffffffffffffffffffffff1673ffffffffffffffffffffffffffffffffffffffff1681526020019081526020016000205461044291906112eb565b6107f0565b600191505092915050565b60008061045f858561073e565b905080610470576000915050610573565b8473ffffffffffffffffffffffffffffffffffffffff163373ffffffffffffffffffffffffffffffffffffffff167fe19260aff97b920c7df27010903aeb9c8d2be5d310a2c67824cf3f15396e4c1686866040516104cf929190611212565b60405180910390a360008590508073ffffffffffffffffffffffffffffffffffffffff1663c0ee0b8a3387876040518463ffffffff1660e01b81526004016105199392919061109c565b602060405180830381600087803b15801561053357600080fd5b505af1158015610547573d6000803e3d6000fd5b505050506040513d601f19601f8201168201806040525081019061056b9190610ed0565b506001925050505b9392505050565b60008060008373ffffffffffffffffffffffffffffffffffffffff1673ffffffffffffffffffffffffffffffffffffffff168152602001908152602001600020549050919050565b6060600480546105d1906113d8565b80601f01602080910402602001604051908101604052809291908181526020018280546105fd906113d8565b801561064a5780601f1061061f5761010080835404028352916020019161064a565b820191906000526020600020905b81548152906001019060200180831161062d57829003601f168201915b5050505050905090565b60008061065f6107e8565b90506000600160008373ffffffffffffffffffffffffffffffffffffffff1673ffffffffffffffffffffffffffffffffffffffff16815260200190815260200160002060008673ffffffffffffffffffffffffffffffffffffffff1673ffffffffffffffffffffffffffffffffffffffff16815260200190815260200160002054905083811015610725576040517f08c379a000000000000000000000000000000000000000000000000000000000815260040161071c906111d7565b60405180910390fd5b61073282868684036107f0565b60019250505092915050565b6000806107496107e8565b9050610756818585610a47565b600191505092915050565b6000600160008473ffffffffffffffffffffffffffffffffffffffff1673ffffffffffffffffffffffffffffffffffffffff16815260200190815260200160002060008373ffffffffffffffffffffffffffffffffffffffff1673ffffffffffffffffffffffffffffffffffffffff16815260200190815260200160002054905092915050565b600033905090565b600073ffffffffffffffffffffffffffffffffffffffff168373ffffffffffffffffffffffffffffffffffffffff161415610860576040517f08c379a0000000000000000000000000000000000000000000000000000000008152600401610857906111b7565b60405180910390fd5b600073ffffffffffffffffffffffffffffffffffffffff168273ffffffffffffffffffffffffffffffffffffffff1614156108d0576040517f08c379a00000000000000000000000000000000000000000000000000000000081526004016108c790611137565b60405180910390fd5b80600160008573ffffffffffffffffffffffffffffffffffffffff1673ffffffffffffffffffffffffffffffffffffffff16815260200190815260200160002060008473ffffffffffffffffffffffffffffffffffffffff1673ffffffffffffffffffffffffffffffffffffffff168152602001908152602001600020819055508173ffffffffffffffffffffffffffffffffffffffff168373ffffffffffffffffffffffffffffffffffffffff167f8c5be1e5ebec7d5bd14f71427d1e84f3dd0314c0f7b2291e5b200ac8c7c3b925836040516109ae91906111f7565b60405180910390a3505050565b60006109c78484610761565b90507fffffffffffffffffffffffffffffffffffffffffffffffffffffffffffffffff8114610a415781811015610a33576040517f08c379a0000000000000000000000000000000000000000000000000000000008152600401610a2a90611157565b60405180910390fd5b610a4084848484036107f0565b5b50505050565b600073ffffffffffffffffffffffffffffffffffffffff168373ffffffffffffffffffffffffffffffffffffffff161415610ab7576040517f08c379a0000000000000000000000000000000000000000000000000000000008152600401610aae90611197565b60405180910390fd5b600073ffffffffffffffffffffffffffffffffffffffff168273ffffffffffffffffffffffffffffffffffffffff161415610b27576040517f08c379a0000000000000000000000000000000000000000000000000000000008152600401610b1e90611117565b60405180910390fd5b610b32838383610cc8565b60008060008573ffffffffffffffffffffffffffffffffffffffff1673ffffffffffffffffffffffffffffffffffffffff16815260200190815260200160002054905081811015610bb8576040517f08c379a0000000000000000000000000000000000000000000000000000000008152600401610baf90611177565b60405180910390fd5b8181036000808673ffffffffffffffffffffffffffffffffffffffff1673ffffffffffffffffffffffffffffffffffffffff16815260200190815260200160002081905550816000808573ffffffffffffffffffffffffffffffffffffffff1673ffffffffffffffffffffffffffffffffffffffff1681526020019081526020016000206000828254610c4b91906112eb565b925050819055508273ffffffffffffffffffffffffffffffffffffffff168473ffffffffffffffffffffffffffffffffffffffff167fddf252ad1be2c89b69c2b068fc378daa952ba7f163c4a11628f55a4df523b3ef84604051610caf91906111f7565b60405180910390a3610cc2848484610ccd565b50505050565b505050565b505050565b6000610ce5610ce084611282565b61125d565b905082815260208101848484011115610cfd57600080fd5b610d08848285611396565b509392505050565b600081359050610d1f816116dc565b92915050565b600081519050610d34816116f3565b92915050565b600082601f830112610d4b57600080fd5b8135610d5b848260208601610cd2565b91505092915050565b600081359050610d738161170a565b92915050565b600060208284031215610d8b57600080fd5b6000610d9984828501610d10565b91505092915050565b60008060408385031215610db557600080fd5b6000610dc385828601610d10565b9250506020610dd485828601610d10565b9150509250929050565b600080600060608486031215610df357600080fd5b6000610e0186828701610d10565b9350506020610e1286828701610d10565b9250506040610e2386828701610d64565b9150509250925092565b60008060408385031215610e4057600080fd5b6000610e4e85828601610d10565b9250506020610e5f85828601610d64565b9150509250929050565b600080600060608486031215610e7e57600080fd5b6000610e8c86828701610d10565b9350506020610e9d86828701610d64565b925050604084013567ffffffffffffffff811115610eba57600080fd5b610ec686828701610d3a565b9150509250925092565b600060208284031215610ee257600080fd5b6000610ef084828501610d25565b91505092915050565b610f0281611341565b82525050565b610f1181611353565b82525050565b6000610f22826112b3565b610f2c81856112c9565b9350610f3c8185602086016113a5565b610f45816114c8565b840191505092915050565b6000610f5b826112be565b610f6581856112da565b9350610f758185602086016113a5565b610f7e816114c8565b840191505092915050565b6000610f966023836112da565b9150610fa1826114d9565b604082019050919050565b6000610fb96022836112da565b9150610fc482611528565b604082019050919050565b6000610fdc601d836112da565b9150610fe782611577565b602082019050919050565b6000610fff6026836112da565b915061100a826115a0565b604082019050919050565b60006110226025836112da565b915061102d826115ef565b604082019050919050565b60006110456024836112da565b91506110508261163e565b604082019050919050565b60006110686025836112da565b91506110738261168d565b604082019050919050565b6110878161137f565b82525050565b61109681611389565b82525050565b60006060820190506110b16000830186610ef9565b6110be602083018561107e565b81810360408301526110d08184610f17565b9050949350505050565b60006020820190506110ef6000830184610f08565b92915050565b6000602082019050818103600083015261110f8184610f50565b905092915050565b6000602082019050818103600083015261113081610f89565b9050919050565b6000602082019050818103600083015261115081610fac565b9050919050565b6000602082019050818103600083015261117081610fcf565b9050919050565b6000602082019050818103600083015261119081610ff2565b9050919050565b600060208201905081810360008301526111b081611015565b9050919050565b600060208201905081810360008301526111d081611038565b9050919050565b600060208201905081810360008301526111f08161105b565b9050919050565b600060208201905061120c600083018461107e565b92915050565b6000604082019050611227600083018561107e565b81810360208301526112398184610f17565b90509392505050565b6000602082019050611257600083018461108d565b92915050565b6000611267611278565b9050611273828261140a565b919050565b6000604051905090565b600067ffffffffffffffff82111561129d5761129c611499565b5b6112a6826114c8565b9050602081019050919050565b600081519050919050565b600081519050919050565b600082825260208201905092915050565b600082825260208201905092915050565b60006112f68261137f565b91506113018361137f565b9250827fffffffffffffffffffffffffffffffffffffffffffffffffffffffffffffffff038211156113365761133561143b565b5b828201905092915050565b600061134c8261135f565b9050919050565b60008115159050919050565b600073ffffffffffffffffffffffffffffffffffffffff82169050919050565b6000819050919050565b600060ff82169050919050565b82818337600083830152505050565b60005b838110156113c35780820151818401526020810190506113a8565b838111156113d2576000848401525b50505050565b600060028204905060018216806113f057607f821691505b602082108114156114045761140361146a565b5b50919050565b611413826114c8565b810181811067ffffffffffffffff8211171561143257611431611499565b5b80604052505050565b7f4e487b7100000000000000000000000000000000000000000000000000000000600052601160045260246000fd5b7f4e487b7100000000000000000000000000000000000000000000000000000000600052602260045260246000fd5b7f4e487b7100000000000000000000000000000000000000000000000000000000600052604160045260246000fd5b6000601f19601f8301169050919050565b7f45524332303a207472616e7366657220746f20746865207a65726f206164647260008201527f6573730000000000000000000000000000000000000000000000000000000000602082015250565b7f45524332303a20617070726f766520746f20746865207a65726f20616464726560008201527f7373000000000000000000000000000000000000000000000000000000000000602082015250565b7f45524332303a20696e73756666696369656e7420616c6c6f77616e6365000000600082015250565b7f45524332303a207472616e7366657220616d6f756e742065786365656473206260008201527f616c616e63650000000000000000000000000000000000000000000000000000602082015250565b7f45524332303a207472616e736665722066726f6d20746865207a65726f20616460008201527f6472657373000000000000000000000000000000000000000000000000000000602082015250565b7f45524332303a20617070726f76652066726f6d20746865207a65726f2061646460008201527f7265737300000000000000000000000000000000000000000000000000000000602082015250565b7f45524332303a2064656372656173656420616c6c6f77616e63652062656c6f7760008201527f207a65726f000000000000000000000000000000000000000000000000000000602082015250565b6116e581611341565b81146116f057600080fd5b50565b6116fc81611353565b811461170757600080fd5b50565b6117138161137f565b811461171e57600080fd5b5056fea2646970667358221220f61e004faa75968ba7ac15bd276128b1d282f09dce8520fa1bb41ce072bcc75964736f6c63430008030033",
  "immutableReferences": {},
  "source": "// SPDX-License-Identifier: MIT\npragma solidity ^0.8.0;\n\n// Use only for testing purposes\n\nimport \"@openzeppelin/contracts/token/ERC20/ERC20.sol\";\nimport \"./IERC677.sol\";\nimport \"./IERC677TransferReceiver.sol\";\n\ncontract ERC677 is IERC677, ERC20 {\n  constructor(\n    address initialAccount,\n    uint256 initialBalance,\n    string memory tokenName,\n    string memory tokenSymbol\n  ) ERC20(tokenName, tokenSymbol) {\n    _mint(initialAccount, initialBalance);\n  }\n\n  /**\n   * ERC-677's only method implementation\n   * See https://github.com/ethereum/EIPs/issues/677 for details\n   */\n  function transferAndCall(\n    address to,\n    uint256 value,\n    bytes memory data\n  ) external override returns (bool) {\n    bool result = super.transfer(to, value);\n    if (!result) return false;\n\n    emit Transfer(msg.sender, to, value, data);\n\n    IERC677TransferReceiver receiver = IERC677TransferReceiver(to);\n    // slither-disable-next-line unused-return\n    receiver.tokenFallback(msg.sender, value, data);\n\n    // IMPORTANT: the ERC-677 specification does not say\n    // anything about the use of the receiver contract's\n    // tokenFallback method return value. Given\n    // its return type matches with this method's return\n    // type, returning it could be a possibility.\n    // We here take the more conservative approach and\n    // ignore the return value, returning true\n    // to signal a succesful transfer despite tokenFallback's\n    // return value -- fact being tokens are transferred\n    // in any case.\n    return true;\n  }\n}\n",
  "sourcePath": "/home/usuario/Documentos/GitHub/erc677-contracts/contracts/ERC677.sol",
  "compiler": {
    "name": "solc",
    "version": "0.8.3+commit.8d00100c.Emscripten.clang"
  },
  "schemaVersion": "3.4.4",
  "updatedAt": "2022-02-21T01:20:58.635Z",
  "networkType": "ethereum",
  "devdoc": {
    "kind": "dev",
    "methods": {
      "allowance(address,address)": {
        "details": "See {IERC20-allowance}."
      },
      "approve(address,uint256)": {
        "details": "See {IERC20-approve}. NOTE: If `amount` is the maximum `uint256`, the allowance is not updated on `transferFrom`. This is semantically equivalent to an infinite approval. Requirements: - `spender` cannot be the zero address."
      },
      "balanceOf(address)": {
        "details": "See {IERC20-balanceOf}."
      },
      "decimals()": {
        "details": "Returns the number of decimals used to get its user representation. For example, if `decimals` equals `2`, a balance of `505` tokens should be displayed to a user as `5.05` (`505 / 10 ** 2`). Tokens usually opt for a value of 18, imitating the relationship between Ether and Wei. This is the value {ERC20} uses, unless this function is overridden; NOTE: This information is only used for _display_ purposes: it in no way affects any of the arithmetic of the contract, including {IERC20-balanceOf} and {IERC20-transfer}."
      },
      "decreaseAllowance(address,uint256)": {
        "details": "Atomically decreases the allowance granted to `spender` by the caller. This is an alternative to {approve} that can be used as a mitigation for problems described in {IERC20-approve}. Emits an {Approval} event indicating the updated allowance. Requirements: - `spender` cannot be the zero address. - `spender` must have allowance for the caller of at least `subtractedValue`."
      },
      "increaseAllowance(address,uint256)": {
        "details": "Atomically increases the allowance granted to `spender` by the caller. This is an alternative to {approve} that can be used as a mitigation for problems described in {IERC20-approve}. Emits an {Approval} event indicating the updated allowance. Requirements: - `spender` cannot be the zero address."
      },
      "name()": {
        "details": "Returns the name of the token."
      },
      "symbol()": {
        "details": "Returns the symbol of the token, usually a shorter version of the name."
      },
      "totalSupply()": {
        "details": "See {IERC20-totalSupply}."
      },
      "transfer(address,uint256)": {
        "details": "See {IERC20-transfer}. Requirements: - `to` cannot be the zero address. - the caller must have a balance of at least `amount`."
      },
      "transferFrom(address,address,uint256)": {
        "details": "See {IERC20-transferFrom}. Emits an {Approval} event indicating the updated allowance. This is not required by the EIP. See the note at the beginning of {ERC20}. NOTE: Does not update the allowance if the current allowance is the maximum `uint256`. Requirements: - `from` and `to` cannot be the zero address. - `from` must have a balance of at least `amount`. - the caller must have allowance for ``from``'s tokens of at least `amount`."
      }
    },
    "version": 1
  },
  "userdoc": {
    "kind": "user",
    "methods": {
      "transferAndCall(address,uint256,bytes)": {
        "notice": "ERC-677's only method implementation See https://github.com/ethereum/EIPs/issues/677 for details"
      }
    },
    "version": 1
  }
}